:020000040800F2
:10000000F008002079020008B1030008B3030008DB
:10001000B5030008B7030008B9030008000000009A
:10002000000000000000000000000000BB0300080A
:10003000BD03000800000000BF030008C103000862
:10004000930200089302000893020008930200083C
:10005000930200089302000893020008930200082C
:10006000930200089302000893020008930200081C
:10007000930200089302000893020008930200080C
:1000800093020008930200089302000893020008FC
:1000900093020008930200089302000893020008EC
:1000A00093020008930200089302000893020008DC
:1000B0009302000893020008C10800089302000898
:1000C00093020008930200089302000893020008BC
:1000D00093020008D10500089302000855090008A2
:1000E000930200089302000893020008930200089C
:1000F000930200089302000893020008930200088C
:10010000930200089302000893020008930200087B
:10011000930200089302000893020008930200086B
:10012000930200089302000893020008930200085B
:1001300000F002F800F090F80AA090E8000C824469
:100140008344AAF10107DA4501D100F085F8AFF246
:10015000090EBAE80F0013F0010F18BFFB1A43F0A5
:1001600001031847A4360000C4360000103A24BF2B
:1001700078C878C1FAD8520724BF30C830C144BF0C
:1001800004680C607047000000230024002500264E
:10019000103A28BF78C1FBD8520728BF30C148BFEA
:1001A0000B6070476E2902F07780702902F0C081E1
:1001B000662903F0BB82652903F0B882672903F042
:1001C000B5826129AFF3008003681B0A28BF41F0A4
:1001D0008001692902F02480642902F021807529B8
:1001E00002F01E806F2902F04B81782902F08C8189
:1001F000E92902F0E380E42902F0E080F52902F029
:10020000DD80EF2902F04881F82902F08B81036834
:10021000DB0928BF41F08001632902F016857329AC
:1002200002F01B85E32902F02685F32902F02B85D5
:10023000002070471FB502F077FD04000020002168
:1002400003F05EFA401C60600020002103F042FAD7
:10025000E0601FBD10B510BD02F039FD1146FFF77B
:10026000E9FF00F099F802F015FE03B4FFF7F2FF82
:1002700003BC00F057F900000948804709480047CF
:10028000FEE7FEE7FEE7FEE7FEE7FEE7FEE7FEE746
:10029000FEE7FEE704480549054A064B70470000A3
:1002A0005904000831010008F0020020F008002085
:1002B000F0040020F00400208178B02909D14079B1
:1002C000012806D13649D1F8A00118B10020C1F8A3
:1002D000A00170470120FAE710B500F04FFA03E0E3
:1002E000FFF7EAFF00F04AFA0028F9D110BD002517
:1002F0002C4E2D4F4FF0A0084FF01E0986F80280BB
:1003000086F80590274800F07EFA00240A2000F0C5
:10031000C3F9FFF7E1FF641CA4B2642CF6D3A1205B
:10032000B07075716D1CEDB2FF2D00D100251D4818
:1003300000F069FA3888000410D5388800F0FF0A08
:100340000024DFF868B005E01BF8040000F001FAB3
:10035000641CA4B25445F7D30020388000240A203E
:1003600000F09AF9FFF7B8FF641CA4B2642CF6D32E
:10037000C4E710B500F062F94FF4A06000F0B0FBE4
:100380004FF4E134204600F0D7F8204600F00CFB93
:10039000BDE8104000F066BAFFF7EBFFFFF7A7FFDC
:1003A000000021420000002028000020C801002099
:1003B0007047FEE7FEE7FEE7FEE7704770477047CD
:1003C0007047000000204F490A6842F480320A60FA
:1003D0004FF4A0630A6802F40032401C0AB9984244
:1003E000F8D10868800301D5012000E00020012831
:1003F00030D14548026842F010020260026822F0E3
:1004000003020260026842F002020260486848602B
:1004100048684860486840F480604860486820F454
:100420007C104860486840F4E8104860086840F074
:100430008070086008688001FCD5486820F00300DF
:100440004860486840F0020048604868C0F3810096
:100450000228FAD17047B5E710B52A48016841F083
:10046000010101604168294A114041600168284A40
:1004700011400160016821F480210160416821F48C
:10048000FE0141604FF41F018160FFF7E4FF214945
:100490004FF00060086010BD10B51A4A506800F0B7
:1004A0000C011D4B1D4800290ED004290ED008292F
:1004B0000ED003605168194AC1F30311121D515C3B
:1004C0000268CA40026010BD0360F3E70360F1E711
:1004D000516801F47011536803F48033022404EB73
:1004E000914133B153689B0307D50D4B59430160CC
:1004F000E0E70B4B59430160DCE7074B59430160D0
:10050000D8E7000000100240002002400000FFF881
:10051000FFFFF6FE08ED00E000127A000800002060
:1005200000093D00704741490A885206FCD53F4A00
:10053000C1B2121D1180704770B586B00546012109
:1005400044F2040000F091FD4FF40070ADF8140087
:1005500003248DF8164018218DF81710344E05A984
:10056000304600F082FB3115ADF8141004218DF8EF
:10057000171005A9304600F078FB25208DF8000003
:100580008DF801408DF8024001208DF80300684687
:1005900000F0ABFA01950020ADF80800ADF80A00B4
:1005A000ADF80C00ADF810000C20ADF80E001F4C9B
:1005B00001A9204601F012FC012240F225512046FB
:1005C00001F093FC0121204601F083FC06B070BDD0
:1005D00070B5164C40F22551204601F053FD00281D
:1005E0000ED0204601F0DAFCC1B2124A1088030492
:1005F00006D444044FF0000307D50A2901D0138024
:1006000070BD40F40040108070BD0D290AD00A4D25
:10061000C0F30D042955401C80B21080C728F3D9BF
:10062000138070BD40F48040108070BD00380140E0
:10063000000801401C0000204000002010B56FF0B1
:10064000040000F093FA204820490068B0FBF1F064
:100650001F49C0B2087000EB4002C2EBC0104FF659
:10066000FF7202EAC000488010BD1949097848436A
:100670004FF0E021486100238B61086940F00100E0
:1006800008610869C20701D0C003FAD5086920F0E3
:10069000010008618B6170470D49498848434FF05C
:1006A000E021486100238B61086940F00100086186
:1006B0000869C20701D0C003FAD5086920F001001B
:1006C00008618B61704700000800002000127A006A
:1006D0001E00002010B53C493A4A4B788C7802EB5A
:1006E00083131B78A34209D94B7802EB83128B78D2
:1006F0001A4450708878401C887010BDFF208870A4
:1007000010BD31498A78FF2A06D12E4A4B7802EB78
:10071000831210700020887070472B482949427856
:10072000837801EB82110A78FF219A420FD1027976
:1007300012B1A021817070474278521C42704278F9
:1007400002F0010242700122C27081707047817014
:1007500070471D49FE2806D0FF2803D00A78012AD9
:1007600004D0B7E7D9E701200870704700220A706B
:100770003F2800D8C5E7801CC0B2ABE710B51248CF
:1007800000220271C47801210E4B012C04D0827822
:10079000A02A08D0002010BDC270017140788143AA
:1007A00003EB811010BD4278521C4270427802F077
:1007B00001024270FF22827001714078814303EB95
:1007C000811010BD0801002022000020224B234A86
:1007D00019781078A02906D0FF2907D0884207D1C0
:1007E000FF2018707047002119707047FF20704774
:1007F0000A445078FE2803D3801E5070FE207047B4
:10080000491C1970704730B5134C2178FF2901D06D
:10081000012030BD114A01781170002105E0431814
:1008200055185B786B70491C89B213788B42F6D8E7
:10083000A02020700A4C20884006FCD5084DFE20E0
:100840002D1D2880FFF7C2FF21884906FCD528808E
:10085000FF28F7D1002030BD2700002088010020AC
:10086000004800401348816941F0040181618169B9
:1008700041F0200181611048016821F00F01016001
:10088000016841F0030101600B480830016841F440
:10089000807101600948016821F47061016001689C
:1008A00041F44071016005480C30016841F00401D9
:1008B000016070470010024004080140001401402C
:1008C00010B5224C0121204601F030FA00280ED04C
:1008D0001F48018841F4004101800121204601F0B8
:1008E00031FA2046BDE81040002100F0D2BF10BD13
:1008F0007FB504460D460121042000F0C1FBADF890
:100900000440ADF800500024ADF80640ADF80240B8
:100910000E4D6946284600F0EBFC012211462846A0
:1009200000F0D1FF0121284600F0B3FF1E208DF812
:100930000C008DF80D4002208DF80E0001208DF87E
:100940000F0003A800F0D1F87FBD000000080040B0
:100950002800002070B55D4C40F22551204601F082
:1009600091FB00281AD0204601F018FBC4B2584D64
:100970002888000412D42888642810D2554E0021FB
:10098000304601F0A7F9298819B90121304600F055
:1009900080FF2888411C29804F490C5470BD28884D
:1009A00040F40040288070BDF0B587B004460121B6
:1009B000082000F05AFB0121880400F061FB434E3F
:1009C000304601F0C3F93015ADF8140003258DF859
:1009D000165018208DF81700404F05A9384600F032
:1009E00044F9F014ADF8140004208DF8170005A99F
:1009F000384600F03AF901940024ADF80840ADF80B
:100A00000A40ADF80C40ADF810400C20ADF80E00D7
:100A100001A9304601F0E2F90121304601F059FA0E
:100A2000012240F22551304601F05FFA27208DF86F
:100A3000180002208DF819008DF81A5001208DF849
:100A40001B0006A800F051F841F61F416320FFF794
:100A50004FFF1F48048000211E4800F01AFF07B016
:100A6000F0BD0FB4F8B507AA1B480699643001F031
:100A70003DFB002000901848643001F049FB86B22D
:100A80000024154D114F64350BE04021384601F02C
:100A9000EEFA0028F9D0295D384601F07BFA641C93
:100AA000A4B2B442F1D3F8BC5DF814FB0748018846
:100AB0004906002907DBFE21021D11800188490635
:100AC000FCD500207047012070470000004800401E
:100AD0002800002000080040C8010020000C014050
:100AE00029490843294908607047F0B50F23C278A7
:100AF000012601784FF0E027002A1BD0234A126814
:100B000002F4E062C2F5E062120AC2F10404D340CA
:100B10004578A54082781A402A4312011C4BCA54DA
:100B2000007800F01F018E40400907EB8000C0F8FC
:100B30000061F0BD01F01F008640480907EB80000E
:100B4000C0F88061F0BD134A114001430F48001FF7
:100B5000016070470D4A121D002903D0116801433E
:100B60001160704711688143116070474FF0E021B8
:100B7000042804D0086920F004000861704708695F
:100B800040F00400086170470000FA050CED00E039
:100B900000E400E080FFFF1F10B59B49884209D1A7
:100BA0000121042000F077FA0021BDE81040042064
:100BB00000F071BA9549884209D10121082000F05E
:100BC0006AFA0021BDE81040082000F064BA90499C
:100BD000884209D10121102000F05DFA0021BDE812
:100BE0001040102000F057BA8A49884209D10121EB
:100BF000202000F050FA0021BDE81040202000F035
:100C00004ABA8549884209D10121402000F043FABF
:100C10000021BDE81040402000F03DBA7F498842E5
:100C200009D10121802000F036FA0021BDE81040F2
:100C3000802000F030BA7A4988420AD18415012117
:100C4000204600F028FA2046BDE81040002100F0C0
:100C500022BA10BD10B50121084600F01CFA00218F
:100C6000BDE81040012000F016BA2DE9F041002245
:100C7000CC7804F00F03E406002C01DA8C782343CF
:100C80000C780F274FF0010CE4B105680CFA02F460
:100C90000E882640A64211D1960007FA06F825EAEA
:100CA000080503FA06F848EA0505CE78282E02D092
:100CB000482E02D002E0446100E00461521C082A80
:100CC000E4D305600A88FF2A1ED94568002202F194
:100CD00008060CFA06F40E882640A64210D19600AB
:100CE00007FA06F825EA080503FA06F848EA0505B2
:100CF000CE78282E00D14461CE78482E00D10461F0
:100D0000521C082AE3D34560BDE8F0814FF6FF711D
:100D10000180022181700421C170704702460020C9
:100D200092680A4200D001207047806880B2704704
:100D300002460020D2680A4200D001207047C068F5
:100D400080B270470161704741617047002A01D04D
:100D50000161704741617047C160704741F4803262
:100D600082618161826181698069704710B52D4B14
:100D70001A684FF68074224042EA00100843186057
:100D800010BD2949C8617047F0B5264C002801DA2A
:100D9000E36900E06368C0F30346420D120185B2C7
:100DA000C0F301579540032F07D0C2020CD5032290
:100DB000B240934343F0706209E023F070626368CD
:100DC00023F07063636002E0AB4343F0706201B1F3
:100DD0002A43002801DAE261F0BD6260F0BD10B57F
:100DE0008A07120F0F23934021F003040D49214479
:100DF0008C689C438C608B68904003438B6010BD73
:100E00000A4908607047000000080140000C0140DA
:100E1000001001400014014000180140001C014076
:100E2000002001400000014000002042DC00204280
:100E3000B148016841F0010101604168AF4A1140C9
:100E400041600168AE4A11400160016821F48021CF
:100E50000160416821F4FE0141604FF41F0181608F
:100E60007047A5490A6822F480320A600A6822F4B1
:100E700080220A60B0F5803F07D0B0F5802F03D103
:100E8000086840F4A02008607047086840F480308B
:100E900008607047034600205909974A01290AD083
:100EA00002290AD0516A03F01F02012393400B422A
:100EB00000D0012070471168F5E7116AF3E730B5FB
:100EC00000244FF4A0653120FFF7E4FF641CAC421E
:100ED00001D00028F7D03120FFF7DCFF08B1012056
:100EE00030BD002030BD844A116821F0F80141EA8C
:100EF000C000106070478349086070477E4B5A6895
:100F000022F47C1208431043586070477D490866FC
:100F10007047794A516821F00301014351607047DD
:100F20007548406800F00C007047734A516821F022
:100F3000F0010143516070476F4A516821F4E0614C
:100F40000143516070476C4A516821F4605141EA95
:100F5000C00050607047684A002903D0517A0143AD
:100F600051727047517A81435172704766490860E7
:100F70007047614A516821F4404101435160704714
:100F8000624900220A7001F82029012805D00428AE
:100F900002D1052081F820007047012081F820004F
:100FA00070475B490860704753490A6A02430A6206
:100FB0007047574944390860704710B54E4A516828
:100FC00001F00C01534B002927D0042927D0082910
:100FD00027D00360516801F0F00109094E4B5C5CB9
:100FE0000168E1404160546804F4E064240A1C5D37
:100FF00021FA04F48460546804F46054E40A1B5D2C
:10100000D940C160526802F44042920B424B1B1F10
:101010009A5CB1FBF2F1016110BD0360DAE7036095
:10102000D8E7516801F47011536803F48033022447
:1010300004EB914133B153689B0307D5374B5943B8
:101040000160C7E7354B59430160C3E7314B594352
:101050000160BFE7284A002903D05169014351616B
:1010600070475169814351617047234A002903D079
:101070009169014391617047916981439161704722
:101080001D4A002903D0D1690143D1617047D1695C
:101090008143D1617047184A002903D0D1680143C8
:1010A000D1607047D1688143D1607047124A0029EE
:1010B00003D01169014311617047116981431161C6
:1010C000704713494039086070470E49C86470473B
:1010D0000949C87170470848416A41F0807141620E
:1010E000704701460020044A92680A4200D001205D
:1010F0007047014988727047001002400000FFF8F5
:10110000FFFFF6FE00004242D8004242201002409B
:101110008004424200127A002E00002000093D00A7
:1011200010B5FE4988420AD1C41401212046FFF7B8
:10113000B2FF2046BDE810400021FFF7ACBFB0F180
:10114000804F0CD0F649884213D101210220FFF7CD
:10115000ADFF0021BDE810400220FFF7A7BF01212D
:101160000846FFF7A3FF0021BDE810400120FFF76C
:101170009DBFEC49884209D101210420FFF796FF69
:101180000021BDE810400420FFF790BFE6498842E7
:1011900009D101210820FFF789FF0021BDE8104097
:1011A0000820FFF783BFE149884209D101211020BF
:1011B000FFF77CFF0021BDE810401020FFF776BF4D
:1011C000DB49884209D101212020FFF76FFF002170
:1011D000BDE810402020FFF769BFD64988420AD1F8
:1011E000441401212046FFF756FF2046BDE8104079
:1011F0000021FFF750BFD04988420AD10121CC0419
:101200002046FFF748FF2046BDE810400021FFF7C9
:1012100042BFCA4988420AD101210C052046FFF786
:101220003AFF2046BDE810400021FFF734BFC44913
:1012300088420AD101214C052046FFF72CFF2046A9
:10124000BDE810400021FFF726BFBE49884209D102
:1012500001214020FFF72AFF0021BDE81040402077
:10126000FFF724BFB849884209D101218020FFF748
:101270001DFF0021BDE810408020FFF717BFB349D4
:1012800088420AD1841501212046FFF70FFF20462E
:10129000BDE810400021FFF709BFAD4988420AD1DF
:1012A00001210C042046FFF7F6FE2046BDE8104061
:1012B0000021FFF7F0BEA74988420AD101214C0462
:1012C0002046FFF7E8FE2046BDE810400021FFF76A
:1012D000E2BEA14988420AD101218C042046FFF7D1
:1012E000DAFE2046BDE810400021FFF7D4BE10BD55
:1012F00030B50288894C8F4DA0420DD0A8420BD04A
:10130000B0F1804F08D0864B984205D0854B98426B
:1013100002D0854B984203D122F070034A881A43C9
:10132000824B984206D0824B984203D022F44073FD
:10133000CA881A4302808A8882850A880285A04268
:101340000AD0A84208D0824A904205D0814A9042F1
:1013500002D0814A904201D1097A0186012181821D
:1013600030BD30B5028C22F001020284028C8388E9
:10137000048B24F0700424F003050C882C4322F025
:1013800002020D8915434A882A43644DA8420BD0B6
:10139000684DA84208D06E4DA84205D06D4DA842B8
:1013A00002D06D4DA8420FD122F008054A892A4388
:1013B00022F004058A882A4323F4807323F40073FF
:1013C0008D891D43CB892B4383800483C988818603
:1013D000028430BD70B5028C22F010020284028CAF
:1013E0008388048B24F4E04424F440760D884FF67F
:1013F000FF7404EA0525354322F020020E8904EA31
:10140000061616434A8804EA02123243434EB0429B
:1014100002D0484EB04217D122F080024E8904EA31
:101420000616164326F040068A8804EA0212324362
:1014300023F4806323F400638E8904EA86061E4346
:10144000CB8904EA8303334383800583C9880187FA
:10145000028470BD70B5028C22F480720284028C0A
:101460008388848B24F0700424F003040D882543C2
:1014700022F400720E894FF6FF7404EA0626164322
:101480004A8804EA02223243244EB04202D0294E56
:10149000B04217D122F400664A8904EA022232439C
:1014A00022F480668A8804EA0222324323F48053BD
:1014B00023F400538E8904EA06161E43CB8904EAFE
:1014C0000313334383808583C9888187028470BD79
:1014D00070B5028C22F480520284058C8288838B42
:1014E00023F4E04323F440760C884FF6FF7303EABD
:1014F0000424344325F400550E8903EA06362E43AE
:101500004D8803EA05353543044EB04202D0094EFA
:10151000B04226D122F480468A891FE0002C014087
:101520000004004000080040000C00400010004093
:101530000014004000340140004C014000500140C4
:101540000054014000180040001C004000200040F2
:1015500000400140004401400048014003EA82127B
:10156000324382808483C988A0F84010058470BD0E
:10157000828B22F440628283828B4FF6FF7303EAF0
:1015800001210A4382837047F0B5048C24F480540F
:101590000484868B048C4FF6FF7505EA013726F428
:1015A000734605EA0222324305EA03331343F74A3E
:1015B00090420ED0F64A90420BD0B0F1804F08D046
:1015C000F44A904205D0F44A904202D0F34A904245
:1015D00005D124F40051394341F4805104E024F44E
:1015E00002420A4342F4805183830184F0BD828B1E
:1015F00022F00C028283828B0A4382837047F0B50B
:10160000048C24F480740484858B048C4FF6FF775B
:1016100007EA012625F0F30507EA031313432B43DA
:10162000DA4A90420ED0DA4A90420BD0B0F1804FA5
:1016300008D0D84A904205D0D74A904202D0D74A23
:10164000904205D124F40071314341F4807104E0EB
:1016500024F420620A4342F4807183830184F0BD44
:10166000028B22F440620283028B4FF6FF7303EA7F
:1016700001210A4302837047F0B5048C24F0100462
:101680000484068B048C4FF6FF7505EA011726F4D7
:10169000734605EA0333334305EA02221A43BB4B80
:1016A00098420ED0BA4B98420BD0B0F1804F08D080
:1016B000B84B984205D0B84B984202D0B74B9842ED
:1016C00005D124F02001394341F0100104E024F059
:1016D000A0030B4343F0100102830184F0BD028B91
:1016E00022F00C020283028B0A430283704770B51A
:1016F000048C24F001040484058B048C25F0F3058C
:101700004FF6FF7606EA031313432B439F4A90429A
:101710000ED09F4A90420BD0B0F1804F08D09D4A26
:10172000904205D09C4A904202D09C4A904205D1FA
:1017300024F002020A4342F0010104E024F00A020C
:101740000A4342F001010383018470BD70B5054670
:101750000C468E48854209D08D48854206D0B5F1A9
:10176000804F03D08B48854200D08B482088618809
:10177000A288238958B1042811D0082817D02846F8
:10178000FFF702FFE1882846BDE87040F0E62846F2
:10179000FFF7ADFFE1882846BDE870409FE7284687
:1017A000FFF76AFFE1882846BDE8704058E7284601
:1017B000FFF725FFE1882846BDE8704017E72DE9CF
:1017C000F04107460C46002501266188002900D11A
:1017D0000225A288012A00D102262088238988B107
:1017E0003846FFF749FFE1883846FFF739FF23897C
:1017F000324629463846FFF77AFFE1883846BDE889
:10180000F0416CE73846FFF772FFE1883846FFF792
:1018100066FF2389324629463846FFF72DFFE188C7
:101820003846BDE8F0411BE710B50A884B88CC88E4
:101830001A438B8823431A430B891A434B8989899E
:101840001A430A43A0F8442010BD4FF6FF7181806F
:1018500000210180C1804180017270470021018018
:1018600041808180C180018141818181C181704736
:1018700000210180418001228280C1800181704766
:101880000021018041808180C1800181418181816D
:101890007047002904D0018841F0010101807047A0
:1018A000018821F0010101807047002905D030F83E
:1018B000441F41F400410180704730F8441FC1F3D8
:1018C0000E0101807047002A03D082890A43828179
:1018D000704782898A4382817047818270471143B1
:1018E000A0F848107047002A03D082890A438281F9
:1018F000704782898A4382817047018921F00701FC
:1019000001817047028922F070020A430281704708
:1019100000B503461846FFF7F5FF188940F00700A9
:10192000188100BD70B50D4604461146602D0CD0DF
:1019300001222046FFF7DBFE29462046FFF7E2FFA3
:10194000208940F00700208170BD01222046FFF76A
:1019500093FEF1E730B50489E4B24FF6FF7505EA6E
:10196000032313430B432343038130BD10B50446C7
:101970002046FFF7EFFF208920F0070040F0070026
:1019800020F0700040F07000208110BD002C01405C
:10199000003401400004004000080040000C0040FA
:1019A00010B504462046FFF7D5FF208940F480405B
:1019B0002081EAE7018582827047028822F0700266
:1019C0000A430280704770B50589048B068C25F0A8
:1019D00007050D434FF6FC410C4040F201110C434A
:1019E00026F022064FF6FF7101EA0311114331433D
:1019F00005810483018470BD028B22F070020A43CA
:101A000002837047028B22F4E0424FF6FF7303EA31
:101A10000121114301837047828B22F070020A4337
:101A200082837047828B22F4E0424FF6FF7303EA11
:101A30000121114381837047002904D0018841F0BE
:101A4000800101807047018821F08001018070478A
:101A5000002904D0818841F0040181807047818889
:101A600021F0040181807047002904D0818841F071
:101A7000080181807047818821F0080181807047CA
:101A8000002904D0818841F001018180704781885C
:101A900021F0010181807047028B22F008020A4385
:101AA00002837047028B22F400624FF6FF7303EA51
:101AB0000121114301837047828B22F008020A43FF
:101AC00082837047828B22F400624FF6FF7303EA31
:101AD0000121114381837047028B22F004020A43E3
:101AE00002837047028B22F480624FF6FF7303EA91
:101AF0000121114301837047828B22F004020A43C3
:101B000082837047828B22F480624FF6FF7303EA70
:101B10000121114381837047028B22F080020A4326
:101B200002837047028BC2F30E024FF6FF7303EA83
:101B30000121114301837047828B22F080020A4306
:101B400082837047828BC2F30E024FF6FF7303EA63
:101B50000121114381837047028C22F002020A4363
:101B600002847047028C22F008020A430284704704
:101B7000028C22F020024FF6FF7303EA0111114399
:101B800001847047028C22F080024FF6FF7303EA53
:101B90000111114301847047028C22F400724FF648
:101BA000FF7303EA0121114301847047028C22F480
:101BB00000624FF6FF7303EA01211143018470476D
:101BC000028C22F400524FF6FF7303EA01311143F5
:101BD0000184704710B501238B40048C9C4304841E
:101BE000038C8A4013430384CFE610B504238B4053
:101BF000048C9C430484038C8A4013430384C4E60E
:101C000030B500F1180301248C40058CA5430584F0
:101C1000002911D008290FD0091FC1F34E00184424
:101C2000016821F4E041016001684FF6FF7303EAA7
:101C300002221143016030BD03EB5100016821F025
:101C40007001016001681143016030BD002904D0BA
:101C5000018841F0020101807047018821F00201F2
:101C600001807047002904D0018841F004010180FF
:101C70007047018821F0040101807047002904D0D9
:101C8000818841F0800181807047818821F0800146
:101C900081807047028822F00802028002880A438D
:101CA00002807047828822F07002828082880A4314
:101CB00082807047028922F00702028102890A436A
:101CC00002817047028922F08002028102890A4360
:101CD0000281704781847047818570478186704793
:101CE0000187704781877047A0F8401070470288CD
:101CF00022F44072028002880A4302807047808E7C
:101D00007047008F7047808F7047B0F84000704771
:101D1000808C7047008D704702460020128A0A426C
:101D200000D001207047C94301827047024600205D
:101D3000138A0B4092890A40002B02D0002A00D05F
:101D400001207047C94301827047000010B5E14986
:101D500088420AD101218C032046FFF79CF92046D6
:101D6000BDE810400021FFF796B9DB4988420AD14F
:101D700001214C042046FFF799F92046BDE81040A8
:101D80000021FFF793B9D54988420AD101218C047B
:101D90002046FFF78BF92046BDE810400021FFF7F1
:101DA00085B9CF4988420AD10121CC042046FFF7EA
:101DB0007DF92046BDE810400021FFF777B9C949F9
:101DC00088420AD101210C052046FFF76FF9204611
:101DD000BDE810400021FFF769B910BD30B585B0EE
:101DE00004460D46208A4CF6FF710840E9880143FD
:101DF0002182A0894EF6F3110840A9882A8911434F
:101E00006A8902431143A181A08A4FF6FF4108402D
:101E1000A9890143A1826846FFF7CFF8AD48844203
:101E200001D1039800E00298A189090408D500EBCC
:101E3000C00101EB001029684900B0FBF1F007E098
:101E400000EBC00101EB001029688900B0FBF1F044
:101E50006422B0FBF2F109010B096FF018056B4326
:101E600000EB8300A3891D044FF0320307D503EB79
:101E7000C000B0FBF2F000F00700084306E003EBFF
:101E80000010B0FBF2F000F00F000843208105B015
:101E900030BD4FF41651016000218180C180018165
:101EA0000C2242818181704710B5038A4FF2FF02F4
:101EB00013400A884C8822438C88C9880C432243EB
:101EC0001A43028210BD0021018041808180C180BF
:101ED0007047002904D0818941F400518181704705
:101EE000818921F400518181704710B540F66A1351
:101EF000C1F3421301F01F040121A140012B07D0BF
:101F0000022B07D014303AB102680A43026010BDB8
:101F10000C30F8E71030F6E702688A43026010BD23
:101F2000002A03D0828A0A4382827047828A8A43C7
:101F300082827047028A22F00F020282028A0A43DA
:101F400002827047828922F40062828182890A4378
:101F500082817047002904D0818941F0020181818A
:101F60007047818921F0020181817047028A22F045
:101F700020020282028A0A4302827047002904D0AA
:101F8000018A41F4804101827047018A21F4804135
:101F900001827047C1F30801818070478088C0F3D7
:101FA00008007047818941F0010181817047028BEF
:101FB000D2B20283028B42EA012101837047028B75
:101FC00002F47F420283028B0A4302837047002996
:101FD00004D0818A41F0200181827047818A21F0FA
:101FE000200181827047002904D0818A41F01001CC
:101FF00081827047818A21F0100181827047002917
:1020000004D0818A41F0080181827047818A21F0E1
:10201000080181827047002904D0818941F4004180
:10202000818170478189C1F30E0181817047002948
:1020300004D0818A41F4006181827047818A21F451
:10204000006181827047828A22F004028282828A41
:102050000A4382827047002904D0818A41F002013C
:1020600081827047818A21F0020181827047024695
:10207000002012880A4200D0012070478A05C94317
:102080000180704770B5002440F66A12C1F3421314
:1020900001F01F05012606FA05F2012B0CD0022BD8
:1020A0000DD0838A1340090A8E40008830400BB15E
:1020B00000B10124204670BD83891340F3E7038AF1
:1020C0001340F0E740F66A120A0A01219140C94321
:1020D0000180704700380140004400400048004043
:1020E000004C004000500040704700001CB50C46FA
:1020F000064B7B4469460090204600F0E8F8044611
:102100000020694600F0F6F820461CBDFF010000E3
:1021100010B5431C02E010F8011B71B18107FAD120
:102120004FF0013202C88C1A8C4314EAC211F9D064
:10213000C01A0A0603D0C01E10BDC01A10BD0A0482
:1021400001D0801E10BD0902FCD0401E10BD70479A
:1021500070477047704770B5044685690068C106CE
:1021600001D5302600E02026C00708D070BDD4E994
:10217000012130469047206A00F1010020626D1E67
:10218000F5D570BD70B5044685690078C00708D1E3
:1021900070BDD4E9012120209047206A00F10100A0
:1021A00020626D1EF5D570BD09684A0501D540B2A3
:1021B0007047C905FCD500B2704709684A0501D5CA
:1021C000C0B27047C905FCD580B2704770B50C46E7
:1021D0000546012A05D02878800600D5EA69002343
:1021E00002E0012305E05B1C934202D2E05C002880
:1021F000F9D1A869E618C01AA861286A18442862AB
:102200002846FFF7A8FF04E0D5E9012114F8010BE7
:102210009047B442F8D32846FFF7B4FF70BD0000E2
:102220002DE9F0410646002410687529314616A5AF
:1022300011D0FFF7B9FF002803DAC0F1000013A5A1
:1022400007E031688A0701D511A502E0490704D5E6
:1022500010A5012401E0FFF7B0FF00210A2306F1D9
:10226000240707E0B0FBF3F203FB12003030785490
:102270001046491C0028F5D123462A463046BDE8C1
:10228000F04100F06CBA0000000000002D000000DA
:102290002B0000002000000011680268006A53054E
:1022A00001D508700BE0D30501D5088007E01306BF
:1022B00003D5C217C1E9000201E0520608600120FF
:1022C0007047000001694A1C02610878704700B538
:1022D0008FB0CDE901310021059105497944CDE95F
:1022E00003101146684600F02FF90FB000BD000042
:1022F000E5FFFFFF0A6802F8010B0A607047000063
:102300002DE9FF5F15468A460446DFF8AC80F844A5
:102310000027D8E900103E46CDE9001011E03AF858
:1023200016106A4602A800F0B2FC411C07D02178C2
:10233000890603D5E269391891420ED8074406F19F
:1023400001062078800602D5E069B84205DDAE427C
:10235000E5DB3AF816000028E1D1A069C01BA061B6
:102360002046FFF7F8FED8E90010CDE90010002064
:1023700016E03AF818106A4602A800F088FC814678
:10238000401C0BD000250DF1080B05E0D4E901211C
:102390001BF8050090476D1C4D45F7D308F101006F
:1023A000B0428046E5DB206A384420622046FFF7D1
:1023B000E9FEBDE8FF9F00001E1400002DE9F0417A
:1023C0008046D21D22F007020025D2E90002F5293D
:1023D00014A612D0002A06DA0023D0EB030063EB28
:1023E000020211A608E0D8F800108B0701D50FA64D
:1023F00002E0490701D50EA601251146002408F187
:10240000240704E000F066F930323A55641C50EAC3
:102410000102F7D12B46324621464046BDE8F04145
:1024200000F09DB9000000002D0000002B0000000E
:102430002000000030B4002100F124040CE002F080
:10244000070505F130054FEAD20242EA43726554AE
:1024500001F101014FEAD30352EA0305EFD1046809
:10246000002310A2250708D504F020040C4304D053
:10247000C46901230CA2641EC46130BC00F06FB9B2
:1024800010B5044621461068FFF797FE0246204625
:10249000BDE810400023CDE7D21D22F00701D1E9AD
:1024A0000023C7E70000000030000000F0B40D4634
:1024B0000188090502D5234C7C4402E0214C7C4470
:1024C0000E34002100F124060BE002F00F074FEA62
:1024D0001212E75D42EA03724FEA1313775401F1D7
:1024E000010152EA0307F0D102780023120704D554
:1024F000702D06D009B1113402232246F0BC00F041
:102500002EB910340123F8E770B504460D46214674
:102510001068FFF752FE024629462046BDE870408B
:102520000023C3E7D21D22F00703D3E90023BDE750
:102530000368126843F0200303600823C36100238B
:10254000B4E700007C1200002DE9F05F89460446E4
:102550004FF0000ADFF878B1FB44C0F820A0204615
:10256000E1688847002875D0252806D0D4E90121E4
:102570009047206A401C2062F1E700265F46204613
:10258000E16888472028054608DB312D06D207EB95
:10259000050010F8200C08B10643F0E7B00701D59C
:1025A00026F00406C4F81CA00027C4F818A02A2DA1
:1025B00009D0284601F087F838B304EB8708303D8E
:1025C000C8F8185019E059F8041B204604EB87029C
:1025D0009161E1688847012F054618D1E06900281C
:1025E00020DA26F020061DE0D8F8180000EB800065
:1025F00005EB40003038C8F818002046E1688847ED
:10260000054601F060F80028EED1012F0AD02E2DEA
:1026100008D12046E16888477F1C0546022F46F016
:102620002006C4DBA069002803DA404246F0010618
:10263000A061F00701D026F010066C2D0BD0682D9C
:1026400009D04C2D39D06A2D35D0742D35D07A2D46
:1026500033D016E038E0E1682F4620468847B8427C
:10266000054609D16C2F26D04FF48060E1680643FF
:1026700020468847054604E06C2F1AD04FF480703E
:1026800006430DB3A5F14100192802D8203546F4C0
:1026900000664A462946204626604E46FDF782FDE2
:1026A00080B101280BD0F61D26F0070000F10809C3
:1026B00055E74020E4E78020D8E70020D6E706F180
:1026C00004094CE7284651E7206ABDE8F09F000066
:1026D0000412000030B5B0F10A024FEA900E71F119
:1026E00000034EEA817EB0EB0E0061EB91014FEAF0
:1026F000101E4EEA017E10EB0E0041EB11114FEA65
:10270000102E4EEA016E10EB0E0041EB11214FEA44
:10271000104E4EEA014E10EB0E0041EB11414018F5
:1027200041F100014FEAD00040EA41704FEAD10187
:1027300010EB80054FEA810444EA907444EB0104F5
:102740006D1944EB0404521BA3414FF0000348BF32
:102750000A3200D530BD401C41F1000130BD2DE9E9
:10276000F0470D4699469246044600F12408016858
:10277000880604D5E06921F01001216000E0012005
:10278000A84202DDA0EB050700E00027A16907EBE6
:10279000050202EB0900A1EB0000A0612078C00651
:1027A00002D42046FFF7D7FC002608E0D4E9012137
:1027B0001AF806009047206A401C761C20624E459D
:1027C000F4DB2078C0060AD52046FFF7C4FC06E0FB
:1027D000D4E9012130209047206A401C2062381E35
:1027E000A7F10107F4DC07E0D4E9012118F805009E
:1027F0009047206A401C2062281EA5F10105F3DCE9
:102800002046FFF7BFFC2078000602D50220BDE875
:10281000F0870120FBE770472DE9FF4F0C461E466D
:102820004FF0FF378BB0D2E90001DDF860800A90ED
:102830008A46C1F30A5505B93D46002108464FF0C6
:102840000000BAF1000F00F4400005DA00EB800050
:102850004FF4400101EA50004FEA9059B9F1010FDD
:1028600000DDB9460A9850EA4A000ED044F61050EE
:10287000A5F2FF3545432F14B8F1000F1ED0754265
:10288000291E1EDDC9F100021CE0B8F1010F4FF056
:10289000000001D0302103E0F24305E02154401C48
:1028A000B042FBDB30460022002121540B99C1F8D5
:1028B0000880C1E900200FB0BDE8F08FBD1B6D1C82
:1028C000DEE74A4600DA694206A800F071FA06AB74
:1028D00007CB03AB07C350460A9900F025FB8DE8F0
:1028E0000700A0F500501F3800900398002D09DD67
:1028F00042F21F014A46084403A90390684600F0CB
:1029000084FD08E0A0F500504A461F3803A9039053
:10291000684600F08EFD8DE807000004000C03D02F
:102920004FF0FF30410800E01046B8F1000F03D02F
:102930000022009215461FE0751E06D4FFF7CAFE5E
:1029400002F1300262556D1EF8D5B34601220843EC
:1029500002D000227F1C04E02078302801D1002220
:102960007F1E002A099787D01DE0112D07DAFFF797
:10297000B1FE303262556D1C50EA0102F5D10843B8
:102980000FD10021681E05E0235C625C6354491C82
:102990002254401E8142F7DBAB46A81B401E099023
:1029A00001E0009848B1002004F80B000B98099A48
:1029B000C0F80880C0E9002B7DE711264FF0000821
:1029C0005AE72DE9F04F88460446D21D22F0070150
:1029D00091B0D1E90001CDE90A0100F060FE0246A4
:1029E0000B98C00F01D02D2007E02068810701D58A
:1029F0002B2002E0202101EAC000032A099001D027
:102A0000072A05DB03464146204600F091F90FE115
:102A10002078800601D5E06900E00620B8F1650F56
:102A2000814606D0B8F1660F18D0B8F1670F72D1A1
:102A300032E00020B9F1110F009001DB112301E019
:102A400009F101030AAA01A90CA8FFF7E5FEDDE9D7
:102A50000C70002609F10105834648E001204B4631
:102A600000904FF000470AAA01A90CA8FFF7D4FE76
:102A7000DDE90DB00C995D46002618B909F1010099
:102A800001EB0005B9EB050003D4C0F1FF3609F1F5
:102A90000105A5EB09002BE0B9F1010F01DA4FF0B8
:102AA00001090020B9F1110F0090484601DD112302
:102AB00000E003460AAA01A90CA8FFF7ADFEDDE974
:102AC0000C704D4600268346207800070AD4AB459B
:102AD00000DA5D4601A8012D04DD411911F8011C41
:102AE000302907D04F4502DA17F1040F04DA01202C
:102AF000824610E06D1EEEE7002F02DCED1B3E4427
:102B000003E0781CA84200DD0546A7EB060000F1B3
:102B1000010A4FF000472078000703D4AA4501DBE3
:102B20004FF0FF3A0021B7F1004F0DF143088DF847
:102B3000431023D002202B23002F01DA7F422D23C4
:102B40004FF00A0C011EA0F1010000DC4FB197FB11
:102B5000FCF10CFB11720F4602F1300208F8012D56
:102B6000F0E7A8F1010003702188090501D545218E
:102B700000E06521A0F1010800F8011C09980FA9E7
:102B8000A1EB080707F1070700B1012000EB0501E1
:102B900001EBEA70A1693844A1EB0000A0F101004B
:102BA000A0612078C00602D42046FFF7D4FA099825
:102BB00030B1D4E901219047206A00F10100206280
:102BC0002078C00620D52046FFF7C5FA1CE0002E6D
:102BD00004DBB34502DD01A8805D00E03020D4E9CC
:102BE00001219047206A761C401CBAF1010A20623C
:102BF0000AD100F099F8C0680168405CD4E901216D
:102C00009047206A401C2062281EA5F10105DEDCE9
:102C100007E0D4E9012118F8010B9047206A401C15
:102C20002062381EA7F10107F3DC2046FFF7AAFA5D
:102C3000022011B040E610B5436913B1AFF3008034
:102C400001E0FFF7C3FA012010BD127800F1240162
:102C50000A7000224A700122EDE711684FF0FF323E
:102C6000E9E710B5436913B1AFF3008001E0FFF766
:102C700047FB012010BD128800F12401828400224C
:102C8000C2840122EDE711684FF0FF32E9E770B529
:102C90000C461646054600F03FF8036893F801011C
:102CA000012806D0FF2C0FD8185D68B101202C70C8
:102CB00070BDD3F807013246214603442846BDE8DB
:102CC000704003F2071318474FF0FF3070BD754690
:102CD00000F0E6F8AE4605006946534620F00700CE
:102CE000854618B020B5FDF7D5FABDE820404FF075
:102CF00000064FF000074FF000084FF0000B21F0E6
:102D00000701AC46ACE8C009ACE8C009ACE8C009B2
:102D1000ACE8C0098D46704710B500F005F8001DFD
:102D200010BD00BFDD09000000487047B002002060
:102D30002DE9F0411F46044603260168072A01F4E5
:102D4000006004DB08B116A505E016A503E008B194
:102D500015A500E015A521F010002060A069C01E97
:102D6000A0610FB1401EA0612046FFF7F4F94FB1FA
:102D7000D4E9012138469047206A401C2062C01CDB
:102D8000206206E0206AFAE7D4E9012115F8010B78
:102D90009047761EF8D22046FFF7F4F9BDE8F0819F
:102DA0004E414E006E616E00494E4600696E6600EF
:102DB0002DE9F047814616468AB035487844D0E977
:102DC000002380680092CDE90130314878440C3806
:102DD000D0E90223006903924FF03702CDE90430B5
:102DE00041F69B30014491FBF2F0A0F1800502FB1B
:102DF00010141B3C02D56442012000E00020DFF8E3
:102E000090A080460027FA44AAF1C60A0DE0E00728
:102E100009D03246684607EB47010AEB810100F012
:102E200008FB8DE8070064107F1C002CEFD1184FC1
:102E30007F44B43F17E0E80713D007EB04100DF10F
:102E4000180A90E80E00AAE80E00C068F04201D10E
:102E500098190890324606A903A800F0EAFA03ABD5
:102E600007C36D10641C002DE5D132466946B8F1E8
:102E7000000F03A802D000F0C8FA01E000F0D9FA70
:102E8000C9E90001C9F808200AB0BDE8F0870000D0
:102E9000300A00000446AFF300802046FDF7E5F954
:102EA00000487047900200204FF0013C50F8042B7E
:102EB00051F8043B9A4221D1A2EB0C03934313EA4D
:102EC000CC1317D150F8042B51F8043B9A4215D17A
:102ED000A2EB0C03934313EACC130BD150F8042B51
:102EE00051F8043B9A4209D1A2EB0C03934313EA35
:102EF000CC13DBD04FF00000704700BFD01A01BAEE
:102F0000B1FA81F101F0180122FA01F0CB40C1F1D0
:102F10002001DBB2C0B2C01A2CFA01F3D11A9143DE
:102F200011EAC311E6D170475FEA400C08BF91F087
:102F3000000F4FEA8C234FEAC12243EA51514FEA76
:102F40001C5018BF00F5F0404FEA300018BF41F0A8
:102F500000415FEA6C5C00F02980BCF1FF3F08BFD4
:102F600040F080407047130C06BF12044FF0100C65
:102F70004FF0000C130E04BF12020CF1080C130FDB
:102F800004BF12010CF1040C930F04BF92000CF16A
:102F9000020CD30F04BF52000CF1010C11464FF08C
:102FA0000002A0F11F00A0EB0C00704711F0004FD1
:102FB00008BF704731F000413FF4D5AF0B0C06BF9E
:102FC00009044FF0100C4FF0000C0B0E04BF090267
:102FD0000CF1080C0B0F04BF09010CF1040C8B0F52
:102FE00004BF89000CF1020CCB0F04BF49000CF1A7
:102FF000010CCCF12003A0EB0C0022FA03F302FA3F
:103000000CF241EA030100F10100704720F07F4C0F
:1030100080EA030023F07F47ACEB070303F57C5302
:1030200000F0004003F1FF032DE980494FEA154B02
:1030300009B44FEA144325EA0B4E24EA03480FF281
:10304000042606EB132749083E785FEA320203FBA9
:103050000667C7F5000707FB06F64FEA54374FEA45
:10306000D64606F1020607FB066CCCF1005C4FEA7F
:103070001C472CEA074C07FB06F40CFB06F504EB97
:1030800015464FEA961634BF00204FF000404FEA35
:10309000D13706FB07FC4FEA1C4C0CFB0BF7D21B8D
:1030A00003FB0CF761EB07010CFB0EF7B0EB0740DD
:1030B00072EB17420CFB08F734BFA2EB0742B2EBEE
:1030C000074261EB17414FEA0C444FEA910706FBB8
:1030D00007FC4FEA1C4C0CFB0BF7B0EBC74072EB44
:1030E000573203FB0CF734BFA2EBC742B2EBC74227
:1030F00061EB57310CFB0EF7B0EBC70072EB577268
:103100000CFB08F734BFA2EBC702B2EBC70261EBBE
:103110005771039F4FEA816141EA921104EBCC049D
:103120004FEAD1374FEA826206FB07FC42EA90126F
:103130004FEA80604FEA1C4C0CFB0BF7D21B03FBE1
:103140000CF761EB07010CFB0EF7B0EB074072EBDD
:1031500017420CFB08F734BFA2EB0742B2EB074261
:1031600061EB17414FEA8C554FEA910704EB9C2421
:1031700006FB07FC4FEA1C4C0CFB0BF7B0EBC740FF
:1031800072EB573203FB0CF734BFA2EBC742B2EB32
:10319000C74261EB57310CFB0EF7B0EBC70072EB87
:1031A00057720CFB08F734BFA2EBC702B2EBC702A1
:1031B00061EB577115EB4C254FEA816141EA9211A1
:1031C0004FEA82624FEAD13742EA901206FB07FCCF
:1031D00044F100044FEA80604FEA1C4C0CFB0BF7F3
:1031E000D21B03FB0CF761EB07010CFB0EF7B0EBF6
:1031F000074072EB17420CFB08F734BFA2EB074203
:10320000B2EB074261EB174115EB1C154FEA813118
:1032100041EA92414FEA823242EA90424FEA8030DC
:103220004FEA0C7644F1000448EA03434EEA0B48A7
:103230004FF0000EB2EB080C71EB030724BF62469F
:1032400039464EEB0E0E4FF0000B0018524149412B
:103250004BEB0B0BB2EB080C71EB03077BF1000B94
:1032600024BF624639464EEB0E0E4FF0000B00189D
:10327000524149414BEB0B0BB2EB080C71EB0307CE
:103280007BF1000B24BF624639464EEB0E0E51EA2D
:10329000020718BF46F0010616EB0E7655F1000244
:1032A00054F1000103D5BDE88901BDE80088BDE8FF
:1032B0008901BDE80048B619524141EB0101A3F173
:1032C0000103704780807F7E7D7C7B7A797877767A
:1032D00076757473727171706F6E6E6D6C6C6B6AF3
:1032E0006A69686867666665646463636261616091
:1032F000605F5F5E5E5D5D5C5C5B5B5A5A5959580E
:103300005857575656555555545453535252525177
:10331000515050504F4F4F4E4E4D4D4D4C4C4C4BCD
:103320004B4B4A4A4A494949484848474747474614
:103330004646454545444444444343434342424250
:1033400042414141002B26D4770021D01CB54FEAE1
:10335000370703B44FF010004FF010014FF000009A
:103360000FBCBDE810400BF1010BBBF1010F08BF12
:103370005FEA170722BF12F1010211F101014FF0BC
:10338000004143F1000300F0004043EA00007047B1
:10339000F9D35708DAE746EA064613F1400F4FEA39
:1033A00016461FDD13F1200FDFBF16430A4600212A
:1033B00020335B42C8D0C3F1200746EA064602FA32
:1033C00007F74FEA164646EA0706C3F1200722FA36
:1033D00003F201FA07F721FA03F14FF0000342EA82
:1033E0000702B1E746EA020646EA06464FEA1646F3
:1033F00046EA0106BCBF46EA0646360C4FF000031B
:103400004FF000024FF000019EE72DE9C0489346BF
:1034100030B491E8380007C831EA400C48BF34EABC
:10342000430C03D5FFF7F2FDFFF78CFFF0BCBDE8BE
:1034300000882DE9C048934630B491E8380007C8A9
:1034400010F0804F08BF13F0804F03D100F005F853
:10345000FFF778FFF0BCBDE8008820F07F4780EAE6
:10346000030023F07F4C07EB0C03A3F57C5300F023
:103470000040A3F1FE0392F0000F00F0B38095F03E
:10348000000F00F077802DE901494FEA11404FEA23
:10349000144621EA004800FB06FC24EA064708FB24
:1034A00006F607FB08F800FB07F718EB06484CEB9D
:1034B000164C4FEA124B18EB07484FEA15464CEBF7
:1034C000174022EA0B4E0BFB06FC25EA06470EFBD3
:1034D00006F607FB0EFE0BFB07F71EEB064E4CEB4A
:1034E000164C4FF000061EEB074E4CEB174B18EB3B
:1034F0000B0840F1000018EB0E0B58EB000840F1F0
:1035000000008F1A4FF000013CBFC943661B14BF77
:10351000B5EB040C00213CBFC943F61B4FEA17442E
:103520004EEA8E0E27EA04454FEA1C4704FB076269
:103530002CEA074C05FB07F70CFB05F604FB0CFC1B
:1035400016EB074642EB174216EB0C4642EB1C42C9
:103550001BEB060658EB0202414146EA9E0601D5E6
:10356000BDE80189B619524141EB0101A3F1010304
:10357000BDE801894FEA14454FEA114724EA0546A0
:1035800021EA074C05FB07F406FB07F70CFB06F1E5
:1035900005FB0CFC11EB074144EB17444FEA1247C3
:1035A00011EB0C4144EB1C4422EA074C05FB07F2EB
:1035B00006FB07F70CFB06F605FB0CFC16EB0746B3
:1035C00042EB174216EB0C4642EB1C456A1854F1CD
:1035D000000148BF7047B619524141EB0101A3F108
:1035E0000103704795F0000F37D04FEA11424FEAC0
:1035F000144721EA024624EA074C02FB07F106FBC6
:1036000007F70CFB06F402FB0CFC14EB074441EB40
:1036100017414FEA154714EB0C4441EB1C4125EAD6
:10362000074C02FB07F506FB07F70CFB06F602FB4F
:103630000CFC16EB074645EB174516EB0C4645EB25
:103640001C42121951F1000148BF7047B61952418E
:1036500041EB0101A3F1010370474FEA14454FEA22
:10366000114724EA054621EA074C05FB07F106FB52
:1036700007F70CFB06F24FF0000605FB0CFC12EB03
:10368000074241EB174112EB0C4251EB1C4148BF82
:103690007047921841EB0101A3F101037047490003
:1036A00050EAC12018BF04204A0D18BF40F00100A5
:1036B00040F2FF72B2EB515F08BF40F002000128F8
:1036C00008BF0520704730380A2801D20120704712
:1036D0000020704710B500290AD00878002807D0CC
:1036E00005487844FFF7E0FB002801D0002010BD1A
:1036F0000248784410BD0000460100003E01000071
:1037000010B500290AD00878002807D00548784469
:10371000FFF7CAFB002801D0002010BD0248784402
:1037200010BD0000360100002E010000FFF749B96E
:1037300000000000000000003031323334353637ED
:1037400038394142434445464030580030313233E5
:1037500034353637383961626364656640307800E5
:10376000040000080000000000000002000100004A
:103770001000000002400000000000A00000000057
:1037800005400000000000C8000000000C400000E0
:103790000000409C00000000194000000020BCBE5A
:1037A0000000000034400000BFC91B8E0000000470
:1037B000B5400000504BCFD06607E2CF01000000BB
:1037C0006C4100003E8251AADFEEA73401000000E8
:1037D000D9420000DCB5A0E23A301F97FFFFFFFF9F
:1037E000B4450000FD25A0C8E9A3C14FFFFFFFFFBE
:1037F000FF3F00000000008000000000FF3F0000CD
:103800000000008000000000543900080000002083
:10381000400000006C0100089439000840000020BE
:10382000B0080000880100081C00000043000000F0
:10383000F8FFFFFF0C0000000E0000000F0000006A
:103840002E0000001001000043000000F8FFFFFF01
:1038500000404040404040404040414141414140A3
:103860004040404040404040404040404040404058
:1038700040050202020202020202020202020202E7
:1038800002202020202020202020200202020202EC
:103890000202909090909090101010101010101044
:1038A0001010101010101010101010100202020250
:1038B0000202888888888888080808080808080894
:1038C0000808080808080808080808080202020290
:1038D00040000000000000000000000000000000A8
:1038E00000000000000000000000000000000000D8
:1038F00000000000000000000000000000000000C8
:1039000000000000000000000000000000000000B7
:1039100000000000000000000000000000000000A7
:103920000000000000000000000000000000000097
:103930000000000000000000000000000000000087
:103940000000000000000000000000000000000077
:10395000000000000590321F0000000000A24A0491
:10396000000000000000000001020304060708092F
:103970000000000000000000FF0000FF0000020443
:103980000608000000000102030401020304060708
:043990000809000022
:0400000508000131BD
:00000001FF
